{
  "contractName": "LeafLib",
  "abi": [
    {
      "constant": true,
      "inputs": [
        {
          "internalType": "bytes",
          "name": "proof",
          "type": "bytes"
        },
        {
          "internalType": "bytes32",
          "name": "root",
          "type": "bytes32"
        },
        {
          "internalType": "bytes32",
          "name": "hash",
          "type": "bytes32"
        }
      ],
      "name": "checkProof",
      "outputs": [
        {
          "internalType": "bool",
          "name": "",
          "type": "bool"
        }
      ],
      "payable": false,
      "stateMutability": "pure",
      "type": "function"
    },
    {
      "constant": true,
      "inputs": [
        {
          "internalType": "bytes",
          "name": "proof",
          "type": "bytes"
        },
        {
          "internalType": "bytes32",
          "name": "root",
          "type": "bytes32"
        },
        {
          "internalType": "bytes32",
          "name": "hash",
          "type": "bytes32"
        },
        {
          "internalType": "uint256",
          "name": "index",
          "type": "uint256"
        }
      ],
      "name": "checkProofOrdered",
      "outputs": [
        {
          "internalType": "bool",
          "name": "",
          "type": "bool"
        }
      ],
      "payable": false,
      "stateMutability": "pure",
      "type": "function"
    },
    {
      "constant": true,
      "inputs": [
        {
          "internalType": "bytes32",
          "name": "",
          "type": "bytes32"
        }
      ],
      "name": "isRoot",
      "outputs": [
        {
          "internalType": "bool",
          "name": "",
          "type": "bool"
        }
      ],
      "payable": false,
      "stateMutability": "view",
      "type": "function"
    },
    {
      "constant": true,
      "inputs": [
        {
          "internalType": "address",
          "name": "",
          "type": "address"
        }
      ],
      "name": "leaf",
      "outputs": [
        {
          "internalType": "uint256",
          "name": "",
          "type": "uint256"
        }
      ],
      "payable": false,
      "stateMutability": "view",
      "type": "function"
    },
    {
      "constant": true,
      "inputs": [
        {
          "internalType": "uint256",
          "name": "",
          "type": "uint256"
        }
      ],
      "name": "roots",
      "outputs": [
        {
          "internalType": "bytes32",
          "name": "",
          "type": "bytes32"
        }
      ],
      "payable": false,
      "stateMutability": "view",
      "type": "function"
    },
    {
      "constant": false,
      "inputs": [
        {
          "internalType": "bytes32",
          "name": "root",
          "type": "bytes32"
        }
      ],
      "name": "addRoot",
      "outputs": [],
      "payable": false,
      "stateMutability": "nonpayable",
      "type": "function"
    },
    {
      "constant": false,
      "inputs": [
        {
          "internalType": "bytes32",
          "name": "root",
          "type": "bytes32"
        },
        {
          "internalType": "address",
          "name": "account",
          "type": "address"
        },
        {
          "internalType": "uint256",
          "name": "amount",
          "type": "uint256"
        },
        {
          "internalType": "bytes",
          "name": "proof",
          "type": "bytes"
        }
      ],
      "name": "addLeaf",
      "outputs": [],
      "payable": false,
      "stateMutability": "nonpayable",
      "type": "function"
    },
    {
      "constant": true,
      "inputs": [
        {
          "internalType": "address",
          "name": "a",
          "type": "address"
        }
      ],
      "name": "addressToBytes32",
      "outputs": [
        {
          "internalType": "bytes32",
          "name": "",
          "type": "bytes32"
        }
      ],
      "payable": false,
      "stateMutability": "pure",
      "type": "function"
    },
    {
      "constant": true,
      "inputs": [
        {
          "internalType": "bytes32",
          "name": "b",
          "type": "bytes32"
        }
      ],
      "name": "bytes32ToAddress",
      "outputs": [
        {
          "internalType": "address",
          "name": "",
          "type": "address"
        }
      ],
      "payable": false,
      "stateMutability": "pure",
      "type": "function"
    },
    {
      "constant": true,
      "inputs": [
        {
          "internalType": "bytes32",
          "name": "b",
          "type": "bytes32"
        }
      ],
      "name": "bytes32Touint256",
      "outputs": [
        {
          "internalType": "uint256",
          "name": "",
          "type": "uint256"
        }
      ],
      "payable": false,
      "stateMutability": "pure",
      "type": "function"
    },
    {
      "constant": true,
      "inputs": [
        {
          "internalType": "uint256",
          "name": "i",
          "type": "uint256"
        }
      ],
      "name": "uint256ToBytes32",
      "outputs": [
        {
          "internalType": "bytes32",
          "name": "",
          "type": "bytes32"
        }
      ],
      "payable": false,
      "stateMutability": "pure",
      "type": "function"
    }
  ],
  "bytecode": "0x608060405234801561001057600080fd5b5061070e806100206000396000f3fe608060405234801561001057600080fd5b50600436106100a95760003560e01c8063765fd1b311610071578063765fd1b31461026957806382c947b71461028f578063bf0af1ba146102b5578063c2b40ae414610360578063caadea171461037d578063d59e64611461039a576100a9565b806323a27bcd146100ae5780632fa69a1f146101735780635ced058e146102015780635edb2fb31461023a5780636effe4d81461023a575b600080fd5b61015f600480360360808110156100c457600080fd5b8101906020810181356401000000008111156100df57600080fd5b8201836020820111156100f157600080fd5b8035906020019184600183028401116401000000008311171561011357600080fd5b91908080601f01602080910402602001604051908101604052809392919081815260200183838082843760009201919091525092955050823593505050602081013590604001356103b7565b604080519115158252519081900360200190f35b6101ff6004803603608081101561018957600080fd5b8135916001600160a01b0360208201351691604082013591908101906080810160608201356401000000008111156101c057600080fd5b8201836020820111156101d257600080fd5b803590602001918460018302840111640100000000831117156101f457600080fd5b5090925090506104b8565b005b61021e6004803603602081101561021757600080fd5b5035610576565b604080516001600160a01b039092168252519081900360200190f35b6102576004803603602081101561025057600080fd5b503561057c565b60408051918252519081900360200190f35b6102576004803603602081101561027f57600080fd5b50356001600160a01b031661057f565b610257600480360360208110156102a557600080fd5b50356001600160a01b0316610591565b61015f600480360360608110156102cb57600080fd5b8101906020810181356401000000008111156102e657600080fd5b8201836020820111156102f857600080fd5b8035906020019184600183028401116401000000008311171561031a57600080fd5b91908080601f01602080910402602001604051908101604052809392919081815260200183838082843760009201919091525092955050823593505050602001356105a6565b6102576004803603602081101561037657600080fd5b503561063f565b61015f6004803603602081101561039357600080fd5b503561065d565b6101ff600480360360208110156103b057600080fd5b5035610672565b600080838160205b885181116104aa578089015193506020818a5103602001816103dd57fe5b0491505b6000821180156103f45750600286066001145b801561040257508160020a86115b15610415576002860460010195506103e1565b6002860661046057838360405160200180838152602001828152602001925050506040516020818303038152906040528051906020012092506002868161045857fe5b0495506104a2565b828460405160200180838152602001828152602001925050506040516020818303038152906040528051906020012092506002868161049b57fe5b0460010195505b6020016103bf565b505090941495945050505050565b60008581526001602052604090205460ff166104d357600080fd5b60006104de85610591565b905060006104eb8561057c565b905060008282604051602001808381526020018281526020019250505060405160208183030381529060405280519060200120905061056385858080601f0160208091040260200160405190810160405280939291908181526020018383808284376000920191909152508c92508591506105a69050565b61056c57600080fd5b5050505050505050565b60601c90565b90565b60006020819052908152604090205481565b60601b6bffffffffffffffffffffffff191690565b6000808260205b8651811161063357808701519250828210156105f9578183604051602001808381526020018281526020019250505060405160208183030381529060405280519060200120915061062b565b828260405160200180838152602001828152602001925050506040516020818303038152906040528051906020012091505b6020016105ad565b50909314949350505050565b6002818154811061064c57fe5b600091825260209091200154905081565b60016020526000908152604090205460ff1681565b60008181526001602052604090205460ff161561068e57600080fd5b60008181526001602081905260408220805460ff1916821790556002805491820181559091527f405787fa12a823e0f2b7631cc41b3ba8828b3321ca811111fa75cd3aa3bb5ace015556fea265627a7a72315820bb2653fc498d14591dc90a0420f98c0d030ce5c45aa08b1413ef7f30c904712364736f6c63430005110032",
  "source": "// SPDX-License-Identifier: MIT\npragma solidity >=0.4.22 <0.8.0;\n\nimport {MerkleProof} from \"./lib/MerkleProof.sol\";\n\ncontract LeafLib is MerkleProof {\n    mapping(address => uint256) public leaf;\n    mapping(bytes32 => bool) public isRoot;\n    bytes32[] public roots;\n\n    function addRoot(bytes32 root) external {\n        require(!isRoot[root]);\n        isRoot[root] = true;\n        roots.push(root);\n    }\n\n    function addLeaf(\n        bytes32 root,\n        address account,\n        uint256 amount,\n        bytes calldata proof\n    ) external {\n        require(isRoot[root]);\n\n        bytes32 acb = addressToBytes32(account);\n        bytes32 amb = uint256ToBytes32(amount);\n\n        bytes32 h = keccak256(abi.encodePacked(acb, amb));\n\n        require(checkProof(proof, root, h));\n    }\n\n    function addressToBytes32(address a) public pure returns (bytes32) {\n        return bytes32(bytes20(a));\n    }\n\n    function bytes32ToAddress(bytes32 b) public pure returns (address) {\n        return address(uint160(bytes20(b)));\n    }\n\n    function bytes32Touint256(bytes32 b) public pure returns (uint256) {\n        return uint256(b);\n    }\n\n    function uint256ToBytes32(uint256 i) public pure returns (bytes32) {\n        return bytes32(i);\n    }\n}\n",
  "sourcePath": "/Users/pjh/workspace/chainpartners/whitelisting-contracts/contracts/LeafLib.sol",
  "compiler": {
    "name": "solc",
    "version": "0.5.17+commit.d19bba13.Emscripten.clang"
  },
  "schemaVersion": "3.3.4",
  "updatedAt": "2021-04-03T07:37:10.085Z",
  "devdoc": {
    "methods": {}
  },
  "userdoc": {
    "methods": {}
  }
}