{
  "contractName": "libLeaf",
  "abi": [
    {
      "constant": true,
      "inputs": [
        {
          "internalType": "address",
          "name": "a",
          "type": "address"
        }
      ],
      "name": "addressToBytes32",
      "outputs": [
        {
          "internalType": "bytes32",
          "name": "",
          "type": "bytes32"
        }
      ],
      "payable": false,
      "stateMutability": "pure",
      "type": "function"
    },
    {
      "constant": true,
      "inputs": [
        {
          "internalType": "bytes32",
          "name": "b",
          "type": "bytes32"
        }
      ],
      "name": "bytes32ToAddress",
      "outputs": [
        {
          "internalType": "address",
          "name": "",
          "type": "address"
        }
      ],
      "payable": false,
      "stateMutability": "pure",
      "type": "function"
    },
    {
      "constant": true,
      "inputs": [
        {
          "internalType": "bytes32",
          "name": "b",
          "type": "bytes32"
        }
      ],
      "name": "bytes32Touint256",
      "outputs": [
        {
          "internalType": "uint256",
          "name": "",
          "type": "uint256"
        }
      ],
      "payable": false,
      "stateMutability": "pure",
      "type": "function"
    },
    {
      "constant": true,
      "inputs": [
        {
          "internalType": "uint256",
          "name": "i",
          "type": "uint256"
        }
      ],
      "name": "uint256ToBytes32",
      "outputs": [
        {
          "internalType": "bytes32",
          "name": "",
          "type": "bytes32"
        }
      ],
      "payable": false,
      "stateMutability": "pure",
      "type": "function"
    }
  ],
  "bytecode": "0x61012e610026600b82828239805160001a60731461001957fe5b30600052607381538281f3fe730000000000000000000000000000000000000000301460806040526004361060515760003560e01c80635ced058e1460565780635edb2fb314608c5780636effe4d814608c57806382c947b71460b8575b600080fd5b607060048036036020811015606a57600080fd5b503560db565b604080516001600160a01b039092168252519081900360200190f35b60a66004803603602081101560a057600080fd5b503560e1565b60408051918252519081900360200190f35b60a66004803603602081101560cc57600080fd5b50356001600160a01b031660e4565b60601c90565b90565b60601b6bffffffffffffffffffffffff19169056fea265627a7a72315820eb2400f741bfa909e09c3fd713156c5e1f7d9b45aead27602272be1b67559b8864736f6c63430005110032",
  "source": "// SPDX-License-Identifier: MIT\npragma solidity >=0.4.22 <0.8.0;\n\nlibrary libLeaf {\n    struct Leaf {\n        address account;\n        uint256 amount;\n    }\n\n    function addressToBytes32(address a) public pure returns (bytes32) {\n        return bytes32(bytes20(a));\n    }\n\n    function bytes32ToAddress(bytes32 b) public pure returns (address) {\n        return address(uint160(bytes20(b)));\n    }\n\n    function bytes32Touint256(bytes32 b) public pure returns (uint256) {\n        return uint256(b);\n    }\n\n    function uint256ToBytes32(uint256 i) public pure returns (bytes32) {\n        return bytes32(i);\n    }\n}\n",
  "sourcePath": "/Users/pjh/workspace/chainpartners/whitelisting-contracts/contracts/lib/libLeaf.sol",
  "compiler": {
    "name": "solc",
    "version": "0.5.17+commit.d19bba13.Emscripten.clang"
  },
  "schemaVersion": "3.3.4",
  "updatedAt": "2021-04-03T05:59:31.262Z",
  "devdoc": {
    "methods": {}
  },
  "userdoc": {
    "methods": {}
  }
}