{
  "contractName": "MerkleProof",
  "abi": [
    {
      "constant": true,
      "inputs": [
        {
          "internalType": "bytes",
          "name": "proof",
          "type": "bytes"
        },
        {
          "internalType": "bytes32",
          "name": "root",
          "type": "bytes32"
        },
        {
          "internalType": "bytes32",
          "name": "hash",
          "type": "bytes32"
        }
      ],
      "name": "checkProof",
      "outputs": [
        {
          "internalType": "bool",
          "name": "",
          "type": "bool"
        }
      ],
      "payable": false,
      "stateMutability": "pure",
      "type": "function"
    },
    {
      "constant": true,
      "inputs": [
        {
          "internalType": "bytes",
          "name": "proof",
          "type": "bytes"
        },
        {
          "internalType": "bytes32",
          "name": "root",
          "type": "bytes32"
        },
        {
          "internalType": "bytes32",
          "name": "hash",
          "type": "bytes32"
        },
        {
          "internalType": "uint256",
          "name": "index",
          "type": "uint256"
        }
      ],
      "name": "checkProofOrdered",
      "outputs": [
        {
          "internalType": "bool",
          "name": "",
          "type": "bool"
        }
      ],
      "payable": false,
      "stateMutability": "pure",
      "type": "function"
    }
  ],
  "bytecode": "0x608060405234801561001057600080fd5b5061037a806100206000396000f3fe608060405234801561001057600080fd5b50600436106100365760003560e01c806323a27bcd1461003b578063bf0af1ba14610100575b600080fd5b6100ec6004803603608081101561005157600080fd5b81019060208101813564010000000081111561006c57600080fd5b82018360208201111561007e57600080fd5b803590602001918460018302840111640100000000831117156100a057600080fd5b91908080601f01602080910402602001604051908101604052809392919081815260200183838082843760009201919091525092955050823593505050602081013590604001356101ab565b604080519115158252519081900360200190f35b6100ec6004803603606081101561011657600080fd5b81019060208101813564010000000081111561013157600080fd5b82018360208201111561014357600080fd5b8035906020019184600183028401116401000000008311171561016557600080fd5b91908080601f01602080910402602001604051908101604052809392919081815260200183838082843760009201919091525092955050823593505050602001356102ac565b600080838160205b8851811161029e578089015193506020818a5103602001816101d157fe5b0491505b6000821180156101e85750600286066001145b80156101f657508160020a86115b15610209576002860460010195506101d5565b6002860661025457838360405160200180838152602001828152602001925050506040516020818303038152906040528051906020012092506002868161024c57fe5b049550610296565b828460405160200180838152602001828152602001925050506040516020818303038152906040528051906020012092506002868161028f57fe5b0460010195505b6020016101b3565b505090941495945050505050565b6000808260205b8651811161033957808701519250828210156102ff5781836040516020018083815260200182815260200192505050604051602081830303815290604052805190602001209150610331565b828260405160200180838152602001828152602001925050506040516020818303038152906040528051906020012091505b6020016102b3565b5090931494935050505056fea265627a7a72315820e16f04c8b19c6928a6c3d5c2e6e28c5324028d69135bd313a37e46849cb8b12f64736f6c63430005110032",
  "source": "// https://github.com/ameensol/merkle-tree-solidity/blob/master/src/MerkleProof.sol\n\npragma solidity >=0.4.22 <0.8.0;\n\ncontract MerkleProof {\n    function checkProof(\n        bytes memory proof,\n        bytes32 root,\n        bytes32 hash\n    ) public pure returns (bool) {\n        bytes32 el;\n        bytes32 h = hash;\n\n        for (uint256 i = 32; i <= proof.length; i += 32) {\n            assembly {\n                el := mload(add(proof, i))\n            }\n\n            if (h < el) {\n                h = keccak256(abi.encodePacked(h, el));\n            } else {\n                h = keccak256(abi.encodePacked(el, h));\n            }\n        }\n\n        return h == root;\n    }\n\n    // from StorJ -- https://github.com/nginnever/storj-audit-verifier/blob/master/contracts/MerkleVerifyv3.sol\n    function checkProofOrdered(\n        bytes memory proof,\n        bytes32 root,\n        bytes32 hash,\n        uint256 index\n    ) public pure returns (bool) {\n        // use the index to determine the node ordering\n        // index ranges 1 to n\n\n        bytes32 el;\n        bytes32 h = hash;\n        uint256 remaining;\n\n        for (uint256 j = 32; j <= proof.length; j += 32) {\n            assembly {\n                el := mload(add(proof, j))\n            }\n\n            // calculate remaining elements in proof\n            remaining = (proof.length - j + 32) / 32;\n\n            // we don't assume that the tree is padded to a power of 2\n            // if the index is odd then the proof will start with a hash at a higher\n            // layer, so we have to adjust the index to be the index at that layer\n            while (remaining > 0 && index % 2 == 1 && index > 2**remaining) {\n                index = uint256(index) / 2 + 1;\n            }\n\n            if (index % 2 == 0) {\n                h = keccak256(abi.encodePacked(el, h));\n                index = index / 2;\n            } else {\n                h = keccak256(abi.encodePacked(h, el));\n                index = uint256(index) / 2 + 1;\n            }\n        }\n\n        return h == root;\n    }\n}\n",
  "sourcePath": "/Users/pjh/workspace/chainpartners/whitelisting-contracts/contracts/lib/MerkleProof.sol",
  "compiler": {
    "name": "solc",
    "version": "0.5.17+commit.d19bba13.Emscripten.clang"
  },
  "schemaVersion": "3.3.4",
  "updatedAt": "2021-04-03T07:29:44.544Z",
  "devdoc": {
    "methods": {}
  },
  "userdoc": {
    "methods": {}
  }
}